{
  "abi": [
    {
      "inputs": [
        {
          "internalType": "address[]",
          "name": "pools",
          "type": "address[]"
        }
      ],
      "name": "checkUpkeepMultiplePools",
      "outputs": [
        {
          "internalType": "bool",
          "name": "",
          "type": "bool"
        }
      ],
      "stateMutability": "view",
      "type": "function"
    },
    {
      "inputs": [
        {
          "internalType": "address",
          "name": "pool",
          "type": "address"
        }
      ],
      "name": "isUpkeepRequiredSinglePool",
      "outputs": [
        {
          "internalType": "bool",
          "name": "",
          "type": "bool"
        }
      ],
      "stateMutability": "view",
      "type": "function"
    },
    {
      "inputs": [
        {
          "internalType": "address[]",
          "name": "pools",
          "type": "address[]"
        }
      ],
      "name": "performUpkeepMultiplePools",
      "outputs": [],
      "stateMutability": "nonpayable",
      "type": "function"
    },
    {
      "inputs": [
        {
          "internalType": "address",
          "name": "pool",
          "type": "address"
        }
      ],
      "name": "performUpkeepSinglePool",
      "outputs": [],
      "stateMutability": "nonpayable",
      "type": "function"
    }
  ],
  "bytecode": {
    "object": "0x6080604052606460005534801561001557600080fd5b50610254806100256000396000f3fe608060405234801561001057600080fd5b506004361061004c5760003560e01c8063332611111461005157806391a6078214610079578063ce1dcdfc146100d5578063fcab9e98146100eb575b600080fd5b61006561005f36600461013d565b50600190565b604051901515815260200160405180910390f35b6100d361008736600461013d565b6065600055600180547fffffffffffffffffffffffff00000000000000000000000000000000000000001673ffffffffffffffffffffffffffffffffffffffff92909216919091179055565b005b6100656100e336600461017a565b600192915050565b6100d36100f936600461017a565b60005b6000548110156101385761013083838381811061011b5761011b6101ef565b9050602002016020810190610087919061013d565b6001016100fc565b505050565b60006020828403121561014f57600080fd5b813573ffffffffffffffffffffffffffffffffffffffff8116811461017357600080fd5b9392505050565b6000806020838503121561018d57600080fd5b823567ffffffffffffffff808211156101a557600080fd5b818501915085601f8301126101b957600080fd5b8135818111156101c857600080fd5b8660208260051b85010111156101dd57600080fd5b60209290920196919550909350505050565b7f4e487b7100000000000000000000000000000000000000000000000000000000600052603260045260246000fdfea2646970667358221220459aa20acd417a799c67e5a2b800bd3dda5b6afd0c8fb1e72ba60d5b542022ab64736f6c634300080a0033",
    "linkReferences": {}
  }
}