{
  "abi": [
    {
      "inputs": [],
      "name": "store",
      "outputs": [
        {
          "internalType": "address",
          "name": "",
          "type": "address"
        }
      ],
      "stateMutability": "view",
      "type": "function"
    },
    {
      "inputs": [],
      "name": "upkeep",
      "outputs": [],
      "stateMutability": "nonpayable",
      "type": "function"
    }
  ],
  "bytecode": {
    "object": "0x608060405234801561001057600080fd5b50610224806100206000396000f3fe608060405234801561001057600080fd5b50600436106100365760003560e01c80632cf4704a1461003b578063975057e714610045575b600080fd5b610043610071565b005b6000546040805173ffffffffffffffffffffffffffffffffffffffff9092168252519081900360200190f35b60408051600180825281830190925260009160208083019080368337019050509050737b6ffad58ce09f2a71c01e61f94b1592bd641876816000815181106100bb576100bb610165565b73ffffffffffffffffffffffffffffffffffffffff909216602092830291909101909101526040517ffcab9e9800000000000000000000000000000000000000000000000000000000815273759e817f0c40b11c775d1071d466b5ff5c6ce28e9063fcab9e9890610130908490600401610194565b600060405180830381600087803b15801561014a57600080fd5b505af115801561015e573d6000803e3d6000fd5b5050505050565b7f4e487b7100000000000000000000000000000000000000000000000000000000600052603260045260246000fd5b6020808252825182820181905260009190848201906040850190845b818110156101e257835173ffffffffffffffffffffffffffffffffffffffff16835292840192918401916001016101b0565b5090969550505050505056fea2646970667358221220ea35231e43ef7f2d819867dc2c4977e96026116dcd50ffa245ae9789f314706e64736f6c634300080a0033",
    "linkReferences": {}
  }
}